{
  "_format": "hh-sol-artifact-1",
  "contractName": "HumanFiGovernance",
  "sourceName": "contracts/HumanFiGovernance.sol",
  "abi": [
    {
      "inputs": [],
      "stateMutability": "nonpayable",
      "type": "constructor"
    },
    {
      "inputs": [],
      "name": "AccessControlBadConfirmation",
      "type": "error"
    },
    {
      "inputs": [
        {
          "internalType": "address",
          "name": "account",
          "type": "address"
        },
        {
          "internalType": "bytes32",
          "name": "neededRole",
          "type": "bytes32"
        }
      ],
      "name": "AccessControlUnauthorizedAccount",
      "type": "error"
    },
    {
      "inputs": [
        {
          "internalType": "address",
          "name": "target",
          "type": "address"
        }
      ],
      "name": "AddressEmptyCode",
      "type": "error"
    },
    {
      "inputs": [
        {
          "internalType": "address",
          "name": "implementation",
          "type": "address"
        }
      ],
      "name": "ERC1967InvalidImplementation",
      "type": "error"
    },
    {
      "inputs": [],
      "name": "ERC1967NonPayable",
      "type": "error"
    },
    {
      "inputs": [],
      "name": "EnforcedPause",
      "type": "error"
    },
    {
      "inputs": [],
      "name": "ExpectedPause",
      "type": "error"
    },
    {
      "inputs": [],
      "name": "FailedCall",
      "type": "error"
    },
    {
      "inputs": [],
      "name": "InvalidInitialization",
      "type": "error"
    },
    {
      "inputs": [],
      "name": "NotInitializing",
      "type": "error"
    },
    {
      "inputs": [],
      "name": "ReentrancyGuardReentrantCall",
      "type": "error"
    },
    {
      "inputs": [
        {
          "internalType": "address",
          "name": "token",
          "type": "address"
        }
      ],
      "name": "SafeERC20FailedOperation",
      "type": "error"
    },
    {
      "inputs": [],
      "name": "UUPSUnauthorizedCallContext",
      "type": "error"
    },
    {
      "inputs": [
        {
          "internalType": "bytes32",
          "name": "slot",
          "type": "bytes32"
        }
      ],
      "name": "UUPSUnsupportedProxiableUUID",
      "type": "error"
    },
    {
      "anonymous": false,
      "inputs": [
        {
          "indexed": false,
          "internalType": "uint64",
          "name": "version",
          "type": "uint64"
        }
      ],
      "name": "Initialized",
      "type": "event"
    },
    {
      "anonymous": false,
      "inputs": [
        {
          "indexed": false,
          "internalType": "address",
          "name": "account",
          "type": "address"
        }
      ],
      "name": "Paused",
      "type": "event"
    },
    {
      "anonymous": false,
      "inputs": [
        {
          "indexed": true,
          "internalType": "bytes32",
          "name": "role",
          "type": "bytes32"
        },
        {
          "indexed": true,
          "internalType": "bytes32",
          "name": "previousAdminRole",
          "type": "bytes32"
        },
        {
          "indexed": true,
          "internalType": "bytes32",
          "name": "newAdminRole",
          "type": "bytes32"
        }
      ],
      "name": "RoleAdminChanged",
      "type": "event"
    },
    {
      "anonymous": false,
      "inputs": [
        {
          "indexed": true,
          "internalType": "bytes32",
          "name": "role",
          "type": "bytes32"
        },
        {
          "indexed": true,
          "internalType": "address",
          "name": "account",
          "type": "address"
        },
        {
          "indexed": true,
          "internalType": "address",
          "name": "sender",
          "type": "address"
        }
      ],
      "name": "RoleGranted",
      "type": "event"
    },
    {
      "anonymous": false,
      "inputs": [
        {
          "indexed": true,
          "internalType": "bytes32",
          "name": "role",
          "type": "bytes32"
        },
        {
          "indexed": true,
          "internalType": "address",
          "name": "account",
          "type": "address"
        },
        {
          "indexed": true,
          "internalType": "address",
          "name": "sender",
          "type": "address"
        }
      ],
      "name": "RoleRevoked",
      "type": "event"
    },
    {
      "anonymous": false,
      "inputs": [
        {
          "indexed": false,
          "internalType": "address",
          "name": "newTreasury",
          "type": "address"
        }
      ],
      "name": "TreasuryUpdated",
      "type": "event"
    },
    {
      "anonymous": false,
      "inputs": [
        {
          "indexed": false,
          "internalType": "address",
          "name": "account",
          "type": "address"
        }
      ],
      "name": "Unpaused",
      "type": "event"
    },
    {
      "anonymous": false,
      "inputs": [
        {
          "indexed": true,
          "internalType": "address",
          "name": "implementation",
          "type": "address"
        }
      ],
      "name": "Upgraded",
      "type": "event"
    },
    {
      "anonymous": false,
      "inputs": [
        {
          "indexed": true,
          "internalType": "address",
          "name": "user",
          "type": "address"
        },
        {
          "indexed": false,
          "internalType": "uint256",
          "name": "nullifierHash",
          "type": "uint256"
        }
      ],
      "name": "Voted",
      "type": "event"
    },
    {
      "anonymous": false,
      "inputs": [
        {
          "indexed": true,
          "internalType": "address",
          "name": "user",
          "type": "address"
        },
        {
          "indexed": false,
          "internalType": "uint256",
          "name": "amount",
          "type": "uint256"
        }
      ],
      "name": "ZapExecuted",
      "type": "event"
    },
    {
      "inputs": [],
      "name": "COMPLIANCE_ROLE",
      "outputs": [
        {
          "internalType": "bytes32",
          "name": "",
          "type": "bytes32"
        }
      ],
      "stateMutability": "view",
      "type": "function"
    },
    {
      "inputs": [],
      "name": "DEFAULT_ADMIN_ROLE",
      "outputs": [
        {
          "internalType": "bytes32",
          "name": "",
          "type": "bytes32"
        }
      ],
      "stateMutability": "view",
      "type": "function"
    },
    {
      "inputs": [],
      "name": "EMERGENCY_ROLE",
      "outputs": [
        {
          "internalType": "bytes32",
          "name": "",
          "type": "bytes32"
        }
      ],
      "stateMutability": "view",
      "type": "function"
    },
    {
      "inputs": [],
      "name": "UPGRADER_ROLE",
      "outputs": [
        {
          "internalType": "bytes32",
          "name": "",
          "type": "bytes32"
        }
      ],
      "stateMutability": "view",
      "type": "function"
    },
    {
      "inputs": [],
      "name": "UPGRADE_INTERFACE_VERSION",
      "outputs": [
        {
          "internalType": "string",
          "name": "",
          "type": "string"
        }
      ],
      "stateMutability": "view",
      "type": "function"
    },
    {
      "inputs": [],
      "name": "emergencyPause",
      "outputs": [],
      "stateMutability": "nonpayable",
      "type": "function"
    },
    {
      "inputs": [],
      "name": "externalNullifier",
      "outputs": [
        {
          "internalType": "uint256",
          "name": "",
          "type": "uint256"
        }
      ],
      "stateMutability": "view",
      "type": "function"
    },
    {
      "inputs": [
        {
          "internalType": "bytes32",
          "name": "role",
          "type": "bytes32"
        }
      ],
      "name": "getRoleAdmin",
      "outputs": [
        {
          "internalType": "bytes32",
          "name": "",
          "type": "bytes32"
        }
      ],
      "stateMutability": "view",
      "type": "function"
    },
    {
      "inputs": [
        {
          "internalType": "bytes32",
          "name": "role",
          "type": "bytes32"
        },
        {
          "internalType": "address",
          "name": "account",
          "type": "address"
        }
      ],
      "name": "grantRole",
      "outputs": [],
      "stateMutability": "nonpayable",
      "type": "function"
    },
    {
      "inputs": [
        {
          "internalType": "bytes32",
          "name": "role",
          "type": "bytes32"
        },
        {
          "internalType": "address",
          "name": "account",
          "type": "address"
        }
      ],
      "name": "hasRole",
      "outputs": [
        {
          "internalType": "bool",
          "name": "",
          "type": "bool"
        }
      ],
      "stateMutability": "view",
      "type": "function"
    },
    {
      "inputs": [
        {
          "internalType": "address",
          "name": "_wldToken",
          "type": "address"
        },
        {
          "internalType": "address",
          "name": "_worldIdRouter",
          "type": "address"
        },
        {
          "internalType": "string",
          "name": "_appId",
          "type": "string"
        },
        {
          "internalType": "address",
          "name": "_treasury",
          "type": "address"
        },
        {
          "internalType": "address",
          "name": "_defaultAdmin",
          "type": "address"
        },
        {
          "internalType": "address",
          "name": "_upgrader",
          "type": "address"
        }
      ],
      "name": "initialize",
      "outputs": [],
      "stateMutability": "nonpayable",
      "type": "function"
    },
    {
      "inputs": [
        {
          "internalType": "uint256",
          "name": "",
          "type": "uint256"
        }
      ],
      "name": "nullifierHasVoted",
      "outputs": [
        {
          "internalType": "bool",
          "name": "",
          "type": "bool"
        }
      ],
      "stateMutability": "view",
      "type": "function"
    },
    {
      "inputs": [],
      "name": "paused",
      "outputs": [
        {
          "internalType": "bool",
          "name": "",
          "type": "bool"
        }
      ],
      "stateMutability": "view",
      "type": "function"
    },
    {
      "inputs": [],
      "name": "proxiableUUID",
      "outputs": [
        {
          "internalType": "bytes32",
          "name": "",
          "type": "bytes32"
        }
      ],
      "stateMutability": "view",
      "type": "function"
    },
    {
      "inputs": [
        {
          "internalType": "bytes32",
          "name": "role",
          "type": "bytes32"
        },
        {
          "internalType": "address",
          "name": "callerConfirmation",
          "type": "address"
        }
      ],
      "name": "renounceRole",
      "outputs": [],
      "stateMutability": "nonpayable",
      "type": "function"
    },
    {
      "inputs": [
        {
          "internalType": "bytes32",
          "name": "role",
          "type": "bytes32"
        },
        {
          "internalType": "address",
          "name": "account",
          "type": "address"
        }
      ],
      "name": "revokeRole",
      "outputs": [],
      "stateMutability": "nonpayable",
      "type": "function"
    },
    {
      "inputs": [
        {
          "internalType": "address",
          "name": "_treasury",
          "type": "address"
        }
      ],
      "name": "setTreasury",
      "outputs": [],
      "stateMutability": "nonpayable",
      "type": "function"
    },
    {
      "inputs": [
        {
          "internalType": "bytes4",
          "name": "interfaceId",
          "type": "bytes4"
        }
      ],
      "name": "supportsInterface",
      "outputs": [
        {
          "internalType": "bool",
          "name": "",
          "type": "bool"
        }
      ],
      "stateMutability": "view",
      "type": "function"
    },
    {
      "inputs": [],
      "name": "treasury",
      "outputs": [
        {
          "internalType": "address",
          "name": "",
          "type": "address"
        }
      ],
      "stateMutability": "view",
      "type": "function"
    },
    {
      "inputs": [],
      "name": "unpause",
      "outputs": [],
      "stateMutability": "nonpayable",
      "type": "function"
    },
    {
      "inputs": [
        {
          "internalType": "address",
          "name": "newImplementation",
          "type": "address"
        },
        {
          "internalType": "bytes",
          "name": "data",
          "type": "bytes"
        }
      ],
      "name": "upgradeToAndCall",
      "outputs": [],
      "stateMutability": "payable",
      "type": "function"
    },
    {
      "inputs": [
        {
          "internalType": "uint256",
          "name": "root",
          "type": "uint256"
        },
        {
          "internalType": "uint256",
          "name": "nullifierHash",
          "type": "uint256"
        },
        {
          "internalType": "uint256[8]",
          "name": "proof",
          "type": "uint256[8]"
        }
      ],
      "name": "voteWithWorldID",
      "outputs": [],
      "stateMutability": "nonpayable",
      "type": "function"
    },
    {
      "inputs": [
        {
          "internalType": "address",
          "name": "",
          "type": "address"
        }
      ],
      "name": "votingPower",
      "outputs": [
        {
          "internalType": "uint256",
          "name": "",
          "type": "uint256"
        }
      ],
      "stateMutability": "view",
      "type": "function"
    },
    {
      "inputs": [],
      "name": "withdrawStake",
      "outputs": [],
      "stateMutability": "nonpayable",
      "type": "function"
    },
    {
      "inputs": [],
      "name": "wldToken",
      "outputs": [
        {
          "internalType": "contract IERC20",
          "name": "",
          "type": "address"
        }
      ],
      "stateMutability": "view",
      "type": "function"
    },
    {
      "inputs": [],
      "name": "worldIdRouter",
      "outputs": [
        {
          "internalType": "contract IWorldID",
          "name": "",
          "type": "address"
        }
      ],
      "stateMutability": "view",
      "type": "function"
    },
    {
      "inputs": [
        {
          "internalType": "uint256",
          "name": "amount",
          "type": "uint256"
        }
      ],
      "name": "zap",
      "outputs": [],
      "stateMutability": "nonpayable",
      "type": "function"
    }
  ],
  "bytecode": "0x60a06040523073ffffffffffffffffffffffffffffffffffffffff1660809073ffffffffffffffffffffffffffffffffffffffff168152503480156200004457600080fd5b50620000556200005b60201b60201c565b620001ee565b60006200006d6200016560201b60201c565b90508060000160089054906101000a900460ff1615620000b9576040517ff92ee8a900000000000000000000000000000000000000000000000000000000815260040160405180910390fd5b67ffffffffffffffff80168160000160009054906101000a900467ffffffffffffffff1667ffffffffffffffff1614620001625767ffffffffffffffff8160000160006101000a81548167ffffffffffffffff021916908367ffffffffffffffff1602179055507fc7f505b2f371ae2175ee4913f4499e1f2633a7b5936321eed1cdaeb6115181d267ffffffffffffffff604051620001599190620001d1565b60405180910390a15b50565b600080620001786200018160201b60201c565b90508091505090565b60007ff0c57e16840df040f15088dc2f81fe391c3923bec73e23a9662efc9c229c6a0060001b905090565b600067ffffffffffffffff82169050919050565b620001cb81620001ac565b82525050565b6000602082019050620001e86000830184620001c0565b92915050565b608051612cfc62000218600039600081816115c60152818161161b015261186b0152612cfc6000f3fe60806040526004361061019c5760003560e01c806361d027b3116100ec578063ad3cb1cc1161008a578063d547741f11610064578063d547741f14610585578063ee033bce146105ae578063f0f44260146105d7578063f72c0d8b146106005761019c565b8063ad3cb1cc14610506578063bed9d86114610531578063c07473f6146105485761019c565b80639be3783d116100c65780639be3783d1461045c5780639f50b66d14610487578063a1a1c804146104b2578063a217fddf146104db5761019c565b806361d027b3146103c957806370bb640f146103f457806391d148541461041f5761019c565b80632f2ff15d116101595780634f1ef286116101335780634f1ef2861461034057806351858e271461035c57806352d1902d146103735780635c975abb1461039e5761019c565b80632f2ff15d146102d757806336568abe146103005780633f4ba83a146103295761019c565b806301ffc9a7146101a1578063062d3bd7146101de5780631900ff27146102095780631a8ca3a91461024657806320df43591461026f578063248a9ca31461029a575b600080fd5b3480156101ad57600080fd5b506101c860048036038101906101c39190612072565b61062b565b6040516101d591906120ba565b60405180910390f35b3480156101ea57600080fd5b506101f36106a5565b60405161020091906120ee565b60405180910390f35b34801561021557600080fd5b50610230600480360381019061022b919061213f565b6106c9565b60405161023d91906120ba565b60405180910390f35b34801561025257600080fd5b5061026d60048036038101906102689190612310565b6106e9565b005b34801561027b57600080fd5b50610284610a19565b60405161029191906120ee565b60405180910390f35b3480156102a657600080fd5b506102c160048036038101906102bc91906123e5565b610a3d565b6040516102ce91906120ee565b60405180910390f35b3480156102e357600080fd5b506102fe60048036038101906102f99190612412565b610a6b565b005b34801561030c57600080fd5b5061032760048036038101906103229190612412565b610a8d565b005b34801561033557600080fd5b5061033e610b08565b005b61035a600480360381019061035591906124f3565b610b20565b005b34801561036857600080fd5b50610371610b3f565b005b34801561037f57600080fd5b50610388610b74565b60405161039591906120ee565b60405180910390f35b3480156103aa57600080fd5b506103b3610ba7565b6040516103c091906120ba565b60405180910390f35b3480156103d557600080fd5b506103de610bcc565b6040516103eb919061255e565b60405180910390f35b34801561040057600080fd5b50610409610bf2565b6040516104169190612588565b60405180910390f35b34801561042b57600080fd5b5061044660048036038101906104419190612412565b610bf8565b60405161045391906120ba565b60405180910390f35b34801561046857600080fd5b50610471610c71565b60405161047e9190612602565b60405180910390f35b34801561049357600080fd5b5061049c610c95565b6040516104a9919061263e565b60405180910390f35b3480156104be57600080fd5b506104d960048036038101906104d4919061213f565b610cbb565b005b3480156104e757600080fd5b506104f0610e0a565b6040516104fd91906120ee565b60405180910390f35b34801561051257600080fd5b5061051b610e11565b60405161052891906126d8565b60405180910390f35b34801561053d57600080fd5b50610546610e4a565b005b34801561055457600080fd5b5061056f600480360381019061056a91906126fa565b610f74565b60405161057c9190612588565b60405180910390f35b34801561059157600080fd5b506105ac60048036038101906105a79190612412565b610f8c565b005b3480156105ba57600080fd5b506105d560048036038101906105d0919061274e565b610fae565b005b3480156105e357600080fd5b506105fe60048036038101906105f991906126fa565b6111b0565b005b34801561060c57600080fd5b50610615611239565b60405161062291906120ee565b60405180910390f35b60007f7965db0b000000000000000000000000000000000000000000000000000000007bffffffffffffffffffffffffffffffffffffffffffffffffffffffff1916827bffffffffffffffffffffffffffffffffffffffffffffffffffffffff1916148061069e575061069d8261125d565b5b9050919050565b7f442a94f1a1fac79af32856af2a64f63648cfa2ef3b98610a5bb7cbec4cee698581565b60056020528060005260406000206000915054906101000a900460ff1681565b60006106f36112c7565b905060008160000160089054906101000a900460ff1615905060008260000160009054906101000a900467ffffffffffffffff1690506000808267ffffffffffffffff161480156107415750825b9050600060018367ffffffffffffffff16148015610776575060003073ffffffffffffffffffffffffffffffffffffffff163b145b905081158015610784575080155b156107bb576040517ff92ee8a900000000000000000000000000000000000000000000000000000000815260040160405180910390fd5b60018560000160006101000a81548167ffffffffffffffff021916908367ffffffffffffffff160217905550831561080b5760018560000160086101000a81548160ff0219169083151502179055505b6108136112db565b61081b6112e5565b6108236112ef565b61082b611301565b8a6000806101000a81548173ffffffffffffffffffffffffffffffffffffffff021916908373ffffffffffffffffffffffffffffffffffffffff16021790555089600160006101000a81548173ffffffffffffffffffffffffffffffffffffffff021916908373ffffffffffffffffffffffffffffffffffffffff160217905550886040516020016108bd91906127de565b604051602081830303815290604052805190602001206040516020016108e39190612816565b6040516020818303038152906040528060200190518101906109059190612846565b60028190555087600360006101000a81548173ffffffffffffffffffffffffffffffffffffffff021916908373ffffffffffffffffffffffffffffffffffffffff1602179055506109596000801b8861130b565b506109847f189ab7a9244df0848122154315af71fe140f3db0fe014031783b0946b8c9d2e38761130b565b506109af7fbf233dd2aafeb4d50879c4aa5c81e96d92f6e6945c906a58f9f2d1c1631b4b268861130b565b508315610a0c5760008560000160086101000a81548160ff0219169083151502179055507fc7f505b2f371ae2175ee4913f4499e1f2633a7b5936321eed1cdaeb6115181d26001604051610a0391906128c2565b60405180910390a15b5050505050505050505050565b7fbf233dd2aafeb4d50879c4aa5c81e96d92f6e6945c906a58f9f2d1c1631b4b2681565b600080610a4861140c565b905080600001600084815260200190815260200160002060010154915050919050565b610a7482610a3d565b610a7d81611434565b610a87838361130b565b50505050565b610a95611448565b73ffffffffffffffffffffffffffffffffffffffff168173ffffffffffffffffffffffffffffffffffffffff1614610af9576040517f6697b23200000000000000000000000000000000000000000000000000000000815260040160405180910390fd5b610b038282611450565b505050565b6000801b610b1581611434565b610b1d611552565b50565b610b286115c4565b610b31826116aa565b610b3b82826116d8565b5050565b7fbf233dd2aafeb4d50879c4aa5c81e96d92f6e6945c906a58f9f2d1c1631b4b26610b6981611434565b610b716117f7565b50565b6000610b7e611869565b7f360894a13ba1a3210667c828492db98dca3e2076cc3735a920a3ca505d382bbc60001b905090565b600080610bb26118f0565b90508060000160009054906101000a900460ff1691505090565b600360009054906101000a900473ffffffffffffffffffffffffffffffffffffffff1681565b60025481565b600080610c0361140c565b905080600001600085815260200190815260200160002060000160008473ffffffffffffffffffffffffffffffffffffffff1673ffffffffffffffffffffffffffffffffffffffff16815260200190815260200160002060009054906101000a900460ff1691505092915050565b60008054906101000a900473ffffffffffffffffffffffffffffffffffffffff1681565b600160009054906101000a900473ffffffffffffffffffffffffffffffffffffffff1681565b610cc3611918565b610ccb61196f565b60008111610d0e576040517f08c379a0000000000000000000000000000000000000000000000000000000008152600401610d0590612929565b60405180910390fd5b610d5b33308360008054906101000a900473ffffffffffffffffffffffffffffffffffffffff1673ffffffffffffffffffffffffffffffffffffffff166119b0909392919063ffffffff16565b80600460003373ffffffffffffffffffffffffffffffffffffffff1673ffffffffffffffffffffffffffffffffffffffff1681526020019081526020016000206000828254610daa9190612978565b925050819055503373ffffffffffffffffffffffffffffffffffffffff167f943e3303d50e3770e60b0f7e87f5275b2d87dd5d5dfd94a1e9a61cda4d2c268a82604051610df79190612588565b60405180910390a2610e07611a32565b50565b6000801b81565b6040518060400160405280600581526020017f352e302e3000000000000000000000000000000000000000000000000000000081525081565b610e52611918565b6000600460003373ffffffffffffffffffffffffffffffffffffffff1673ffffffffffffffffffffffffffffffffffffffff16815260200190815260200160002054905060008111610ed9576040517f08c379a0000000000000000000000000000000000000000000000000000000008152600401610ed0906129f8565b60405180910390fd5b6000600460003373ffffffffffffffffffffffffffffffffffffffff1673ffffffffffffffffffffffffffffffffffffffff16815260200190815260200160002081905550610f69338260008054906101000a900473ffffffffffffffffffffffffffffffffffffffff1673ffffffffffffffffffffffffffffffffffffffff16611a4b9092919063ffffffff16565b50610f72611a32565b565b60046020528060005260406000206000915090505481565b610f9582610a3d565b610f9e81611434565b610fa88383611450565b50505050565b610fb661196f565b6000600460003373ffffffffffffffffffffffffffffffffffffffff1673ffffffffffffffffffffffffffffffffffffffff1681526020019081526020016000205411611038576040517f08c379a000000000000000000000000000000000000000000000000000000000815260040161102f90612a64565b60405180910390fd5b6005600083815260200190815260200160002060009054906101000a900460ff1615611099576040517f08c379a000000000000000000000000000000000000000000000000000000000815260040161109090612ad0565b60405180910390fd5b600160009054906101000a900473ffffffffffffffffffffffffffffffffffffffff1673ffffffffffffffffffffffffffffffffffffffff16633bc778e38460018086600254876040518763ffffffff1660e01b815260040161110196959493929190612b3b565b60006040518083038186803b15801561111957600080fd5b505afa15801561112d573d6000803e3d6000fd5b5050505060016005600084815260200190815260200160002060006101000a81548160ff0219169083151502179055503373ffffffffffffffffffffffffffffffffffffffff167f4d99b957a2bc29a30ebd96a7be8e68fe50a3c701db28a91436490b7d53870ca4836040516111a39190612588565b60405180910390a2505050565b6000801b6111bd81611434565b81600360006101000a81548173ffffffffffffffffffffffffffffffffffffffff021916908373ffffffffffffffffffffffffffffffffffffffff1602179055507f7dae230f18360d76a040c81f050aa14eb9d6dc7901b20fc5d855e2a20fe814d18260405161122d919061255e565b60405180910390a15050565b7f189ab7a9244df0848122154315af71fe140f3db0fe014031783b0946b8c9d2e381565b60007f01ffc9a7000000000000000000000000000000000000000000000000000000007bffffffffffffffffffffffffffffffffffffffffffffffffffffffff1916827bffffffffffffffffffffffffffffffffffffffffffffffffffffffff1916149050919050565b6000806112d2611aca565b90508091505090565b6112e3611af5565b565b6112ed611af5565b565b6112f7611af5565b6112ff611b35565b565b611309611af5565b565b60008061131661140c565b90506113228484610bf8565b61140057600181600001600086815260200190815260200160002060000160008573ffffffffffffffffffffffffffffffffffffffff1673ffffffffffffffffffffffffffffffffffffffff16815260200190815260200160002060006101000a81548160ff02191690831515021790555061139c611448565b73ffffffffffffffffffffffffffffffffffffffff168373ffffffffffffffffffffffffffffffffffffffff16857f2f8788117e7eff1d82e926ec794901d17c78024a50270940304540a733656f0d60405160405180910390a46001915050611406565b60009150505b92915050565b60007f02dd7bc7dec4dceedda775e58dd541e08a116c6c53815c0bd028192f7b626800905090565b61144581611440611448565b611b56565b50565b600033905090565b60008061145b61140c565b90506114678484610bf8565b1561154657600081600001600086815260200190815260200160002060000160008573ffffffffffffffffffffffffffffffffffffffff1673ffffffffffffffffffffffffffffffffffffffff16815260200190815260200160002060006101000a81548160ff0219169083151502179055506114e2611448565b73ffffffffffffffffffffffffffffffffffffffff168373ffffffffffffffffffffffffffffffffffffffff16857ff6391f5c32d9c69d2a47ea670b442974b53935d1edc7fd64eb21e047a839171b60405160405180910390a4600191505061154c565b60009150505b92915050565b61155a611ba7565b60006115646118f0565b905060008160000160006101000a81548160ff0219169083151502179055507f5db9ee0a495bf2e6ff9c91a7834c1ba4fdd244a5e8aa4e537bd38aeae4b073aa6115ac611448565b6040516115b9919061255e565b60405180910390a150565b7f000000000000000000000000000000000000000000000000000000000000000073ffffffffffffffffffffffffffffffffffffffff163073ffffffffffffffffffffffffffffffffffffffff16148061167157507f000000000000000000000000000000000000000000000000000000000000000073ffffffffffffffffffffffffffffffffffffffff16611658611be7565b73ffffffffffffffffffffffffffffffffffffffff1614155b156116a8576040517fe07c8dba00000000000000000000000000000000000000000000000000000000815260040160405180910390fd5b565b7f189ab7a9244df0848122154315af71fe140f3db0fe014031783b0946b8c9d2e36116d481611434565b5050565b8173ffffffffffffffffffffffffffffffffffffffff166352d1902d6040518163ffffffff1660e01b8152600401602060405180830381865afa92505050801561174057506040513d601f19601f8201168201806040525081019061173d9190612bb2565b60015b61178157816040517f4c9c8ce3000000000000000000000000000000000000000000000000000000008152600401611778919061255e565b60405180910390fd5b7f360894a13ba1a3210667c828492db98dca3e2076cc3735a920a3ca505d382bbc60001b81146117e857806040517faa1d49a40000000000000000000000000000000000000000000000000000000081526004016117df91906120ee565b60405180910390fd5b6117f28383611c3e565b505050565b6117ff61196f565b60006118096118f0565b905060018160000160006101000a81548160ff0219169083151502179055507f62e78cea01bee320cd4e420270b5ea74000d11b0c9f74754ebdbfc544b05a258611851611448565b60405161185e919061255e565b60405180910390a150565b7f000000000000000000000000000000000000000000000000000000000000000073ffffffffffffffffffffffffffffffffffffffff163073ffffffffffffffffffffffffffffffffffffffff16146118ee576040517fe07c8dba00000000000000000000000000000000000000000000000000000000815260040160405180910390fd5b565b60007fcd5ed15c6e187e77e9aee88184c21f4f2182ab5827cb3b7e07fbedcd63f03300905090565b6000611922611cb1565b90506002816000015403611962576040517f3ee5aeb500000000000000000000000000000000000000000000000000000000815260040160405180910390fd5b6002816000018190555050565b611977610ba7565b156119ae576040517fd93c066500000000000000000000000000000000000000000000000000000000815260040160405180910390fd5b565b611a2c848573ffffffffffffffffffffffffffffffffffffffff166323b872dd8686866040516024016119e593929190612bdf565b604051602081830303815290604052915060e01b6020820180517bffffffffffffffffffffffffffffffffffffffffffffffffffffffff8381831617835250505050611cd9565b50505050565b6000611a3c611cb1565b90506001816000018190555050565b611ac5838473ffffffffffffffffffffffffffffffffffffffff1663a9059cbb8585604051602401611a7e929190612c16565b604051602081830303815290604052915060e01b6020820180517bffffffffffffffffffffffffffffffffffffffffffffffffffffffff8381831617835250505050611cd9565b505050565b60007ff0c57e16840df040f15088dc2f81fe391c3923bec73e23a9662efc9c229c6a0060001b905090565b611afd611d7b565b611b33576040517fd7e6bcf800000000000000000000000000000000000000000000000000000000815260040160405180910390fd5b565b611b3d611af5565b6000611b47611cb1565b90506001816000018190555050565b611b608282610bf8565b611ba35780826040517fe2517d3f000000000000000000000000000000000000000000000000000000008152600401611b9a929190612c3f565b60405180910390fd5b5050565b611baf610ba7565b611be5576040517f8dfc202b00000000000000000000000000000000000000000000000000000000815260040160405180910390fd5b565b6000611c157f360894a13ba1a3210667c828492db98dca3e2076cc3735a920a3ca505d382bbc60001b611d9b565b60000160009054906101000a900473ffffffffffffffffffffffffffffffffffffffff16905090565b611c4782611da5565b8173ffffffffffffffffffffffffffffffffffffffff167fbc7cd75a20ee27fd9adebab32041f755214dbc6bffa90cc0225b39da2e5c2d3b60405160405180910390a2600081511115611ca457611c9e8282611e72565b50611cad565b611cac611ef6565b5b5050565b60007f9b779b17422d0df92223018b32b4d1fa46e071723d6817e2486d003becc55f00905090565b600080602060008451602086016000885af180611cfc576040513d6000823e3d81fd5b3d925060005191505060008214611d17576001811415611d33565b60008473ffffffffffffffffffffffffffffffffffffffff163b145b15611d7557836040517f5274afe7000000000000000000000000000000000000000000000000000000008152600401611d6c919061255e565b60405180910390fd5b50505050565b6000611d856112c7565b60000160089054906101000a900460ff16905090565b6000819050919050565b60008173ffffffffffffffffffffffffffffffffffffffff163b03611e0157806040517f4c9c8ce3000000000000000000000000000000000000000000000000000000008152600401611df8919061255e565b60405180910390fd5b80611e2e7f360894a13ba1a3210667c828492db98dca3e2076cc3735a920a3ca505d382bbc60001b611d9b565b60000160006101000a81548173ffffffffffffffffffffffffffffffffffffffff021916908373ffffffffffffffffffffffffffffffffffffffff16021790555050565b60606000808473ffffffffffffffffffffffffffffffffffffffff1684604051611e9c9190612caf565b600060405180830381855af49150503d8060008114611ed7576040519150601f19603f3d011682016040523d82523d6000602084013e611edc565b606091505b5091509150611eec858383611f33565b9250505092915050565b6000341115611f31576040517fb398979f00000000000000000000000000000000000000000000000000000000815260040160405180910390fd5b565b606082611f4857611f4382611fc2565b611fba565b60008251148015611f70575060008473ffffffffffffffffffffffffffffffffffffffff163b145b15611fb257836040517f9996b315000000000000000000000000000000000000000000000000000000008152600401611fa9919061255e565b60405180910390fd5b819050611fbb565b5b9392505050565b600081511115611fd457805160208201fd5b6040517fd6bda27500000000000000000000000000000000000000000000000000000000815260040160405180910390fd5b6000604051905090565b600080fd5b600080fd5b60007fffffffff0000000000000000000000000000000000000000000000000000000082169050919050565b61204f8161201a565b811461205a57600080fd5b50565b60008135905061206c81612046565b92915050565b60006020828403121561208857612087612010565b5b60006120968482850161205d565b91505092915050565b60008115159050919050565b6120b48161209f565b82525050565b60006020820190506120cf60008301846120ab565b92915050565b6000819050919050565b6120e8816120d5565b82525050565b600060208201905061210360008301846120df565b92915050565b6000819050919050565b61211c81612109565b811461212757600080fd5b50565b60008135905061213981612113565b92915050565b60006020828403121561215557612154612010565b5b60006121638482850161212a565b91505092915050565b600073ffffffffffffffffffffffffffffffffffffffff82169050919050565b60006121978261216c565b9050919050565b6121a78161218c565b81146121b257600080fd5b50565b6000813590506121c48161219e565b92915050565b600080fd5b600080fd5b6000601f19601f8301169050919050565b7f4e487b7100000000000000000000000000000000000000000000000000000000600052604160045260246000fd5b61221d826121d4565b810181811067ffffffffffffffff8211171561223c5761223b6121e5565b5b80604052505050565b600061224f612006565b905061225b8282612214565b919050565b600067ffffffffffffffff82111561227b5761227a6121e5565b5b612284826121d4565b9050602081019050919050565b82818337600083830152505050565b60006122b36122ae84612260565b612245565b9050828152602081018484840111156122cf576122ce6121cf565b5b6122da848285612291565b509392505050565b600082601f8301126122f7576122f66121ca565b5b81356123078482602086016122a0565b91505092915050565b60008060008060008060c0878903121561232d5761232c612010565b5b600061233b89828a016121b5565b965050602061234c89828a016121b5565b955050604087013567ffffffffffffffff81111561236d5761236c612015565b5b61237989828a016122e2565b945050606061238a89828a016121b5565b935050608061239b89828a016121b5565b92505060a06123ac89828a016121b5565b9150509295509295509295565b6123c2816120d5565b81146123cd57600080fd5b50565b6000813590506123df816123b9565b92915050565b6000602082840312156123fb576123fa612010565b5b6000612409848285016123d0565b91505092915050565b6000806040838503121561242957612428612010565b5b6000612437858286016123d0565b9250506020612448858286016121b5565b9150509250929050565b600067ffffffffffffffff82111561246d5761246c6121e5565b5b612476826121d4565b9050602081019050919050565b600061249661249184612452565b612245565b9050828152602081018484840111156124b2576124b16121cf565b5b6124bd848285612291565b509392505050565b600082601f8301126124da576124d96121ca565b5b81356124ea848260208601612483565b91505092915050565b6000806040838503121561250a57612509612010565b5b6000612518858286016121b5565b925050602083013567ffffffffffffffff81111561253957612538612015565b5b612545858286016124c5565b9150509250929050565b6125588161218c565b82525050565b6000602082019050612573600083018461254f565b92915050565b61258281612109565b82525050565b600060208201905061259d6000830184612579565b92915050565b6000819050919050565b60006125c86125c36125be8461216c565b6125a3565b61216c565b9050919050565b60006125da826125ad565b9050919050565b60006125ec826125cf565b9050919050565b6125fc816125e1565b82525050565b600060208201905061261760008301846125f3565b92915050565b6000612628826125cf565b9050919050565b6126388161261d565b82525050565b6000602082019050612653600083018461262f565b92915050565b600081519050919050565b600082825260208201905092915050565b60005b83811015612693578082015181840152602081019050612678565b60008484015250505050565b60006126aa82612659565b6126b48185612664565b93506126c4818560208601612675565b6126cd816121d4565b840191505092915050565b600060208201905081810360008301526126f2818461269f565b905092915050565b6000602082840312156127105761270f612010565b5b600061271e848285016121b5565b91505092915050565b600080fd5b60008190508260206008028201111561274857612747612727565b5b92915050565b6000806000610140848603121561276857612767612010565b5b60006127768682870161212a565b93505060206127878682870161212a565b92505060406127988682870161272c565b9150509250925092565b600081905092915050565b60006127b882612659565b6127c281856127a2565b93506127d2818560208601612675565b80840191505092915050565b60006127ea82846127ad565b915081905092915050565b6000819050919050565b61281061280b826120d5565b6127f5565b82525050565b600061282282846127ff565b60208201915081905092915050565b60008151905061284081612113565b92915050565b60006020828403121561285c5761285b612010565b5b600061286a84828501612831565b91505092915050565b6000819050919050565b600067ffffffffffffffff82169050919050565b60006128ac6128a76128a284612873565b6125a3565b61287d565b9050919050565b6128bc81612891565b82525050565b60006020820190506128d760008301846128b3565b92915050565b7f416d6f756e74206d757374206265203e20300000000000000000000000000000600082015250565b6000612913601283612664565b915061291e826128dd565b602082019050919050565b6000602082019050818103600083015261294281612906565b9050919050565b7f4e487b7100000000000000000000000000000000000000000000000000000000600052601160045260246000fd5b600061298382612109565b915061298e83612109565b92508282019050808211156129a6576129a5612949565b5b92915050565b7f4e6f20766f74696e6720706f7765720000000000000000000000000000000000600082015250565b60006129e2600f83612664565b91506129ed826129ac565b602082019050919050565b60006020820190508181036000830152612a11816129d5565b9050919050565b7f4e6f20736b696e20696e207468652067616d6520285a61702066697273742900600082015250565b6000612a4e601f83612664565b9150612a5982612a18565b602082019050919050565b60006020820190508181036000830152612a7d81612a41565b9050919050565b7f416c726561647920766f74656400000000000000000000000000000000000000600082015250565b6000612aba600d83612664565b9150612ac582612a84565b602082019050919050565b60006020820190508181036000830152612ae981612aad565b9050919050565b6000612b0b612b06612b0184612873565b6125a3565b612109565b9050919050565b612b1b81612af0565b82525050565b82818337505050565b612b376101008383612b21565b5050565b60006101a082019050612b516000830189612579565b612b5e6020830188612b12565b612b6b6040830187612b12565b612b786060830186612579565b612b856080830185612579565b612b9260a0830184612b2a565b979650505050505050565b600081519050612bac816123b9565b92915050565b600060208284031215612bc857612bc7612010565b5b6000612bd684828501612b9d565b91505092915050565b6000606082019050612bf4600083018661254f565b612c01602083018561254f565b612c0e6040830184612579565b949350505050565b6000604082019050612c2b600083018561254f565b612c386020830184612579565b9392505050565b6000604082019050612c54600083018561254f565b612c6160208301846120df565b9392505050565b600081519050919050565b600081905092915050565b6000612c8982612c68565b612c938185612c73565b9350612ca3818560208601612675565b80840191505092915050565b6000612cbb8284612c7e565b91508190509291505056fea2646970667358221220eb23541f3d614d742d81cbfadc54452a55fa558993b38bfe7743bc3c443db50f64736f6c63430008160033",
  "linkReferences": {},
  "deployedLinkReferences": {}
}